:020000040800F2
:1000000000000220B9020008BF020008C302000875
:1000100035030008390300088103000800000000D0
:100020000000000000000000000000001123000894
:10003000CD03000800000000B123000815240008CB
:10004000E5030008E5030008E5030008E5030008F0
:10005000E5030008E5030008E5030008E5030008E0
:10006000E5030008E5030008E5030008E5030008D0
:10007000E5030008E5030008E5030008E5030008C0
:10008000E5030008E5030008E5030008E5030008B0
:10009000E5030008E5030008E5030008E5030008A0
:1000A000E5030008E5030008E5030008E503000890
:1000B000E5030008E5030008E5030008E503000880
:1000C000E5030008E5030008E5030008E503000870
:1000D000E5030008E5030008E5030008E503000860
:1000E000E5030008E5030008E5030008E503000850
:1000F000E5030008E5030008E5030008E503000840
:10010000E5030008E5030008E5030008E50300082F
:10011000E5030008E5030008E5030008E50300081F
:10012000E5030008E5030008E5030008E50300080F
:10013000E5030008E5030008E5030008E5030008FF
:10014000E5030008E5030008E5030008E5030008EF
:10015000E5030008E5030008E5030008E5030008DF
:10016000E5030008E5030008E5030008E5030008CF
:10017000E5030008E5030008E503000800000000AF
:10018000E5030008E503000800B583B001F0F2F9CB
:10019000384B394A1360394A1360394906E052F83E
:1001A000041B43F8041B9842F9D86146354B994229
:1001B00005D20A684B6801F10C0C8868F3E72E4BF6
:1001C0001A68314B9A4200D0FEE72C4B1A682F4B2D
:1001D0009A42F9D1274B2E4A13602E4A13602E4AB9
:1001E00000E002462D4B9A4209D2104650F8083BD7
:1001F00051689942F5D9002243F8042BF9E7244BC2
:100200001B6813B9234B1B6803B1FEE701F066FAC4
:10021000694601A800F0C8FE214C224BE41AA41044
:10022000002504E01F4B53F8253098470135AC42B8
:10023000F8DC1D4C1D4BE41AA410002504E01B4BF8
:1002400053F8253098470135AC42F8DC0099019805
:1002500001F096FD0546164C164BE41AA41004E076
:10026000013C144B53F824309847002CF8DC284606
:1002700000F036FEBABADECA00000020A40000205A
:10028000E8030008000400087856341232547698C7
:10029000A8000020A8310120000400081004000874
:1002A00010040008100400081004000810040008DE
:1002B000100400081004000808B5FFF765FF00BE31
:1002C000FEE71EF0040F0CBFEFF30880EFF3098088
:1002D0007146414A10472DE9F04182B004460D466F
:1002E000124B5F6BD3F838809E6A1B6B13F0020FC2
:1002F00003D00E4BDB6A002B0BDB0D4801F014F82A
:10030000009543463A463146204601F049F800BE82
:10031000FEE74BF6AB6101F0BDF80028EDD0034BD2
:100320004FF00042DA6202B0BDE8F08100ED00E07B
:10033000B454000800BEFEE71EF0040F0CBFEFF33C
:100340000880EFF309807146244A10472DE9F041F7
:1003500082B004460D46084B5F6BD3F838809E6A26
:10036000064800F0E1FF009543463A4631462046F4
:1003700001F016F800BEFEE700ED00E0C4540008EE
:100380001EF0040F0CBFEFF30880EFF309807146F5
:10039000134A10472DE9F04182B004460D46084B40
:1003A0005F6BD3F838809E6A064800F0BDFF009569
:1003B00043463A463146204600F0F2FF00BEFEE7D3
:1003C00000ED00E0D054000800BEFEE700BEFEE7EE
:1003D00000BEFEE770470000D70200084D0300088A
:0803E0009503000800BEFEE7D2
:1003E8002C59000800000020A80000202C59000803
:1003F8000000001000000010A8000020AC3101200F
:080408000000001000000010CC
:1004100010B504460E4B1A784FF47A73B3FBF2F31F
:100420000C4A1068B0FBF3F000F0AEF868B90F2C7E
:1004300001D901200AE0002221464FF0FF3000F0F0
:100440007FF8054B1C60002000E0012010BD00BFBC
:10045000040000200C0000200800002008B50B4B11
:100460001A6842F400721A601A6842F480621A60D4
:100470001A6842F480721A60032000F043F80F20DB
:10048000FFF7C6FF01F0D8FD002008BD003C024088
:10049000014B1868704700BFAC000020002808DB43
:1004A0000901C9B200F1604000F5614080F8001315
:1004B000704700F00F000901C9B2014B1954704791
:1004C00014ED00E000B500F00700C0F1070CBCF12E
:1004D000040F28BF4FF0040C031D062B0FD9C31EB9
:1004E0004FF0FF3E0EFA0CF021EA000199400EFA9F
:1004F00003FE22EA0E0241EA02005DF804FB00233B
:10050000EEE7000010B50446C31E042B0FD80A4ABC
:10051000D36823F4E0631B041B0C240204F4E0649E
:10052000234343F0BF6343F40033D36010BD9221F3
:10053000024801F0DBF8EAE700ED00E0DC520008D9
:1005400070B506460C4615460F2A0ED80F2C11D84A
:100550000B4BD8682A462146C0F30220FFF7B2FFB2
:1005600001463046FFF79AFF70BDAA21054801F009
:10057000BDF8EBE7AB21034801F0B8F8E8E700BFAE
:1005800000ED00E0DC5200080138B0F1807F0BD2B2
:100590004FF0E0235861054AF02182F82310002033
:1005A000986107221A6170470120704700ED00E052
:1005B00008B5042807D068B94FF0E022136923F08A
:1005C0000403136108BD4FF0E022136943F00403F4
:1005D0001361F7E740F2C911014801F087F8EBE732
:1005E000DC520008002800F0588270B582B0044642
:1005F00003680F2B39D8236813F0010F4DD06368BF
:100600002BB1B3F5803F02D0B3F5A02F32D1804B90
:100610009B6803F00C03042B36D07D4B9B6803F0E2
:100620000C03082B2BD06368B3F5803F5FD0B3F584
:10063000A02F62D0764B1A6822F480321A601A68B2
:1006400022F480221A606368002B60D0FFF720FF3D
:1006500005466F4B1B6813F4003F1ED1FFF718FFD0
:10066000401B6428F5D903201EE2E821694801F007
:100670003DF8C0E7ED21674801F038F8C7E7644B63
:100680005B6813F4800FCED0614B1B6813F4003FFE
:1006900003D06368002B00F00282236813F0020F7E
:1006A00066D0E368012B41D823691F2B44D8584BEF
:1006B0009B6813F00C0F4AD0554B9B6803F00C035A
:1006C000082B3FD0E368002B77D0534B01221A60F0
:1006D000FFF7DEFE05464E4B1B6813F0020F63D199
:1006E000FFF7D6FE401B0228F5D90320DCE1484A7B
:1006F000136843F480331360A5E7454B1A6842F44E
:1007000080221A601A6842F480321A609BE7FFF771
:10071000BFFE05463E4B1B6813F4003FBDD0FFF7FC
:10072000B7FE401B6428F5D90320BDE140F21F113C
:10073000384800F0DBFFB7E74FF49071354800F020
:10074000D5FFB4E7324B5B6813F4800FBAD1304B5E
:100750001B6813F0020F03D0E368012B40F0A18166
:100760002B4A136823F0F803216943EAC10313609D
:10077000236813F0080F51D06369012B2FD86369E8
:100780009BB3254B0122C3F8802EFFF781FE05465F
:100790001F4B5B6F13F0020F40D1FFF779FE401B38
:1007A0000228F5D903207FE1194A136823F0F803E2
:1007B000216943EAC1031360DAE7174B00221A608C
:1007C000FFF766FE0546124B1B6813F0020FCFD0F1
:1007D000FFF75EFE401B0228F5D9032064E14FF4C9
:1007E000B0710C4800F082FFC9E70B4B0022C3F840
:1007F000802EFFF74DFE0546054B5B6F13F0020F91
:100800000CD0FFF745FE401B0228F5D903204BE131
:10081000003802401053000800004742236813F0DC
:10082000040F7CD0A368012B01D9052B38D1A44B30
:100830001B6C13F0805F39D100230193A04B1A6C1D
:1008400042F080521A641B6C03F080530193019BA9
:1008500001259C4B1B6813F4807F29D0A368012BD2
:100860003AD0052B3ED0964B1A6F22F001021A6740
:100870001A6F22F004021A67A368002B3CD0FFF71E
:1008800007FE06468E4B1B6F13F0020F45D1FFF794
:10089000FFFD801B41F288339842F3D9032003E126
:1008A0004FF4C671884800F021FFC0E70025D0E76B
:1008B000844A136843F480731360FFF7E9FD06462A
:1008C000804B1B6813F4807FC8D1FFF7E1FD801BCC
:1008D0000228F5D90320E7E0794A136F43F00103BA
:1008E0001367C9E7764B1A6F42F004021A671A6F52
:1008F00042F001021A67BFE7FFF7CAFD0646704BD8
:100900001B6F13F0020F08D0FFF7C2FD801B41F2EE
:1009100088339842F3D90320C6E0002D3BD1A36968
:10092000022B3ED8A369002B00F0BD80644A926878
:1009300002F00C02082A00F09080022B79D1E369C2
:1009400013B1B3F5800F32D1236A3F2B35D8636AD8
:10095000323BB3F5BF7F36D8A26A082A39D84FF4A4
:10096000AA73D34013F0010F33D0E36A023B0D2B7F
:1009700035D8564B00221A66FFF78AFD0546504BC4
:100980001B6813F0007F30D0FFF782FD401B022868
:10099000F5D9032088E04A4A136C23F0805313648E
:1009A000BDE740F2CF11484800F0A0FEBAE74FF48F
:1009B000EC71454800F09AFEC6E740F2D911424872
:1009C00000F094FEC3E74FF4ED713F4800F08EFE57
:1009D000C2E740F2DB113C4800F088FEC5E74FF467
:1009E000EE71394800F082FEC3E7E369226A1343DF
:1009F000626A43EA8213A26A5208013A43EA024356
:100A0000E26A43EA02632E4A5360304B01221A66BF
:100A1000FFF73EFD04462A4B1B6813F0007F06D10A
:100A2000FFF736FD001B0228F5D903203CE000202B
:100A30003AE0264B00221A66FFF72AFD0446204BB7
:100A40001B6813F0007F06D0FFF722FD001B022871
:100A5000F5D9032028E0002026E0012B26D0184BF2
:100A60005B6803F48001E269914221D103F03F0207
:100A7000216A8A421ED1616A47F6C0721A408A42D0
:100A80001AD103F44032A16A8A4217D103F070638D
:100A9000E26A93421CD1002006E001207047012049
:100AA00002E0012000E0002002B070BD0120FBE761
:100AB0000120F9E70120F7E70120F5E70120F3E73E
:100AC0000038024000700040105300080000474208
:100AD0000120E9E708B5334B9B6803F00C03042BB6
:100AE0005BD0082B5BD12F4B5A6802F03F025B684A
:100AF00013F4800F2CD02B4B5868C0F388104FEAAA
:100B0000401CBCEB000C6EEB0E0E4FEA8E1343EA5A
:100B10009C634FEA8C11B1EB0C0163EB0E03DB001D
:100B200043EA5173C90011EB000C43F10003590271
:100B300000234FEA4C2041EADC5103F025F8194B21
:100B40005B68C3F3014301335B00B0FBF3F008BD06
:100B5000144B5868C0F388104FEA401CBCEB000CE3
:100B60006EEB0E0E4FEA8E1343EA9C634FEA8C1134
:100B7000B1EB0C0163EB0E03DB0043EA5173C900D8
:100B800011EB000C43F10003990200234FEA8C2083
:100B900041EA9C5102F0F8FFD1E70348D7E7034848
:100BA000D5E700BF0038024000127A000024F400AC
:100BB000002800F0FA8070B50D4604460368013B3A
:100BC0000E2B32D8072D36D87C4B1B6803F00F0351
:100BD000AB4208D2EBB2794A1370136803F00F03EB
:100BE000AB4240F0E480236813F0020F3ED013F0D4
:100BF000040F04D0724A936843F4E053936023686F
:100C000013F0080F04D06E4A936843F46043936076
:100C1000A36823B3C02B22D016D8A02B1FD010D886
:100C2000802B1CD0902B1AD014E040F25121654843
:100C300000F05CFDC6E740F25221624800F056FD2C
:100C4000C2E7B02B0BD005E0E02B08D0F02B06D08C
:100C5000D02B04D040F275215A4800F047FD584A85
:100C6000936823F0F003A1680B439360236813F0AB
:100C7000010F3CD06368032B25D86368012B28D073
:100C80009A1E012A2CD94E4A126812F0020F00F067
:100C900090804B498A6822F0030213438B60FFF770
:100CA000F7FB0646464B9B6803F00C036268B3EB08
:100CB000820F1CD0FFF7ECFB801B41F28833984277
:100CC000F0D9032064E04FF41F713E4800F00EFDA0
:100CD000D3E73B4A126812F4003FDAD1012057E013
:100CE000374A126812F0007FD3D1012050E0334B15
:100CF0001B6803F00F03AB4207D9EAB22F4B1A70FF
:100D00001B6803F00F03AB4255D1236813F0040FA7
:100D100014D0E3685BB1B3F5805F08D0B3F5A05F92
:100D200005D0B3F5C05F02D0B3F5E05F31D1244AFE
:100D3000936823F4E053E1680B439360236813F056
:100D4000080F15D023695BB1B3F5805F08D0B3F508
:100D5000A05F05D0B3F5C05F02D0B3F5E05F1ED150
:100D6000174A936823F46043216943EAC1039360FF
:100D7000FFF7B0FE124B9B68C3F30313124AD35C18
:100D8000D840124B1860124B1868FFF741FB002047
:100D900070BD40F2BA210B4800F0A8FCC7E740F252
:100DA000C121084800F0A2FCDAE7012070470120C9
:100DB000EEE70120ECE70120EAE700BF003C02403B
:100DC0000038024010530008DC5600080C000020D8
:100DD00008000020014B1868704700BF0C0000207D
:100DE00000B583B08C46194652B11446064B0194A7
:100DF000009363460246054800F096FA00F00AF8B0
:100E0000034B1C46F3E700BF405300085053000853
:100E10000C55000808B5034800F0A0FA012000F0C6
:100E20005FF800BF8053000808B503460C4A1268FB
:100E30005AB10B4A1068033323F003030344094AF1
:100E4000934206D8064A136008BD054A0649116058
:100E5000EFE703F011FB0C2303604FF0FF30F3E7E3
:100E6000B000002000FC0120AC31012030B513247B
:100E7000002520462946ABBE0446204630BD38B585
:100E8000044603F0F9FA0546FFF7F0FF2860204614
:100E900038BDB0F1FF3F00D0704708B5FFF7EFFF56
:100EA00008BD000010B504460B4B186808B1436834
:100EB0005BB1132C0CD8094B53F83430B3F1FF3F1E
:100EC00008D0064800EBC40010BD03F0B1F8F0E70D
:100ED0000020F9E70020F7E7540000203801002047
:100EE00000B530B9044D182420462946ABBE04464F
:100EF000FEE7024DF7E700BF2600020023000200D4
:100F00002DE9F04184B0234F019703260396002377
:100F10000293012401AD20462946ABBE80461E4BFC
:100F2000C3F80080019703960423029320462946C4
:100F3000ABBE8046194BC3F8008001970396082387
:100F4000029320462946ABBE0446154B1C60B4F103
:100F5000FF3F01D000230AE0104B1A68104B1A60C3
:100F6000F8E7104A4FF0FF3142F833100133132BEA
:100F7000F7DD0C4B084A12681A6000225A600749D4
:100F800009689960DA600649096819615A6104B014
:100F9000BDE8F081945300083401002030010020A6
:100FA0002C010020380100202DE9F04383B0814658
:100FB00088462A4B00934F23019315276C463846E9
:100FC0002146ABBE0746AFBB244B002283F84F201F
:100FD000009A3E463C463D4607E001321E46204B05
:100FE00043F8252001350124013292F90030FBB18C
:100FF00064B91C49C9560029F6DB092BF4D0082D29
:1010000016DC222BE9D0272BE9D1E6E736B19E4248
:10101000EAD1002313703E463C46E5E71149C95624
:10102000002901DB092BDFD1002313703446DBE7F5
:101030003DB900E00025094B00221A70084A1360F0
:101040000135074B002243F82520C9F80050C8F8A5
:101050000030FFF755FF03B0BDE8F083DC0000204F
:10106000B4000020AC57000830B585B00190029163
:101070000392062401AD20462946ABBE0446204615
:10108000FFF707FF05B030BD70B50D461446FFF7FA
:1010900009FF68B10646224629460068FFF7E4FFCB
:1010A000B0F1FF3F03D07368201A0344736070BD32
:1010B00003F0E2F9092303604FF0FF30F7E7F0B5E2
:1010C00083B00C461546FFF7EDFEC0B10646022D73
:1010D0001CD8012D21D0022D29D033680093019412
:1010E0000A256F4628463946ABBE05462846FFF717
:1010F000D0FE00282BDB7460204603B0F0BD03F067
:10110000BBF9092303604FF0FF30F6E703F0B4F9B1
:10111000162303604FF0FF30EFE74368E418DCD597
:1011200003F0AAF9162303604FF0FF30E5E70368E8
:1011300000930C256F4628463946ABBE0546284627
:10114000FFF7A7FEB0F1FF3FD7D00444C5E74FF04B
:10115000FF30D2E708B5FFF7B2FF08BD30B585B064
:10116000019002910392052401AD20462946ABBEB1
:1011700004462046FFF78DFE05B030BD70B50D4624
:101180001446FFF78FFE70B10646224629460068D6
:10119000FFF7E4FF031E11DB7268E01A024472607D
:1011A0009C4207D070BD03F067F9092303604FF03C
:1011B000FF30F7E70020FFF762FEF3E74FF0FF3064
:1011C000F0E730B583B00190022401AD20462946F6
:1011D000ABBE04462046FFF75CFE03B030BD000006
:1011E00038B50446FFF75EFE80B10546601E012853
:1011F00004D80C4B9A681B699A420ED02868FFF7F6
:10120000E0FF10B94FF0FF332B6038BD03F034F925
:10121000092303604FF0FF30F7E74FF0FF332B60F7
:101220000020F2E73801002070B50C46FFF73AFEC7
:10123000A8B10646636843F4005363604FF48063CB
:10124000A3640C2528463146ABBE05462846FFF769
:1012500020FEB0F1FF3F01D02061002070BD03F0FF
:101260000BF9092303604FF0FF30F7E738B5054667
:101270000C4658220021204603F0B0F821462846AB
:10128000FFF7D2FF38BD38B5FFF70CFE80B1054639
:10129000092420462946ABBE04462046012C06D030
:1012A00003F0EAF80446FFF7E1FD2060002038BDB6
:1012B00003F0E2F8092303600020F8E72DE9F0438A
:1012C00085B004460F4643563BBB042528462146BD
:1012D000ABBE0546384605B0BDE8F08314F901CB36
:1012E00003F110026A4402F810CC0133AB42F5D38B
:1012F00010336B44002203F8102C4FF00408E94629
:1013000040464946ABBE8046761B002EE2D03546AD
:10131000102E28BF10250023E8E70E46F5E708B594
:10132000FFF7CCFF08BD00000FB400B583B004ABDD
:1013300053F8042B01938021074802F0ADFF0028E9
:1013400004DC03B05DF804EB04B0704701460248CA
:10135000FFF7E5FFF5E700BFDC01002010B504460C
:1013600003F0ABF801462046FFF7D9FF0121024800
:10137000FFF7D5FF10BD00BF28560008BFF34F8F01
:101380000549CA6802F4E062044B1343CB60BFF323
:101390004F8F00BFFDE700BF00ED00E00400FA053D
:1013A000F8B504460D4617461E462748FFF7BCFF12
:1013B00021682648FFF7B8FF61682548FFF7B4FFAA
:1013C000A1682448FFF7B0FFE1682348FFF7ACFFAE
:1013D00021692248FFF7A8FF61692148FFF7A4FFB0
:1013E000A1692048FFF7A0FFE1691F48FFF79CFFB4
:1013F0001E48FFF799FF29461D48FFF795FF1D4C32
:10140000E16A1D48FFF790FF216B1C48FFF78CFF36
:10141000E16B1B48FFF788FF15F0800F0AD115F428
:10142000004F0CD11748FFF77FFF06991648FFF7CA
:101430007BFFF8BD39461548FFF776FFEFE73146E9
:101440001348FFF771FFEDE798530008A853000811
:10145000B8530008C8530008D8530008E8530008E0
:10146000F8530008085400081854000828540008CD
:101470003454000800ED00E04454000854540008BF
:1014800064540008945400089C54000874540008E4
:101490008454000838B583691B888B4201D0002032
:1014A00038BD044603684568013B302B5ED8DFE851
:1014B00003F03B211C1C5330332D19195D191919E8
:1014C00019193619245D19275D395D5D5D5D5D5D16
:1014D0005D5D5D5D5D5D5D5D5D5D5D5D5D5D5D5D3C
:1014E0005D1919004FF0FF330360A3690233A36154
:1014F0000120D5E700230360F7E700230360F4E74A
:1015000000232B606B60AB60EB60EEE700230360B1
:10151000EBE7AB680360E8E700230360E5E700233F
:101520000360E2E7FFF72AFF1149286802F0ADFFE8
:1015300040B96B6813B901232360D6E7042B05D0AB
:10154000082B06D04FF0FF332360CEE70223236041
:10155000CBE703232360C8E72B68023B012B02D9AA
:10156000AB680360C1E700230360BEE7002097E794
:101570009453000808B500F009F8024A024B9A603B
:1015800008BD00BF0000000800ED00E0024B4FF076
:1015900000629A60704700BF00ED00E0224B9B683C
:1015A00003F00C03042B11D0082B13D0002B37D1E0
:1015B0001E4B1F4A1A601C4B9B68C3F303131D4A42
:1015C000D15C1A4A1368CB4013607047174B1A4A14
:1015D0001A60F0E7144B59685A6802F03F0211F4A0
:1015E000800F13D0144BB3FBF2F30F4A5268C2F3CF
:1015F000881202FB03F30C4A5268C2F30142013223
:101600005200B3FBF2F3094A1360D4E7084BB3FB73
:10161000F2F3054A5268C2F3881202FB03F3EAE7C9
:10162000024B034A1A60C6E7003802400C00002053
:101630000024F400DC56000800127A0030B595B0A2
:1016400000240194224B1A6C42F080521A641B6CE5
:1016500003F080530193019B02941E4B1A6842F4DD
:1016600080421A601B6803F480430293029B0123AB
:1016700008934FF4803309934FF480030F930823AA
:1016800010934FF4A8731193022512950723139317
:101690000E9508A8FEF7A6FF0F2303930495059463
:1016A0004FF4A05306934FF480530793052103A8EA
:1016B000FFF77EFAFFF78EFB074BA3FB0030800994
:1016C000FEF762FF0420FEF773FF15B030BD00BFC8
:1016D0000038024000700040D34D621008B5FEF79C
:1016E000BDFEFFF7ABFFFFF759FF08BD08B50A467F
:1016F00001460248FFF718FEFEE700BFE05400086D
:1017000008B500231A4619460248006801F0ADF8F2
:1017100008BD00BF6C02002008B500231A46194618
:101720000248006801F0A1F808BD00BF680200206F
:1017300008B500231A4619460248006801F095F8DA
:1017400008BD00BF6402002070B588B012E02D4AC9
:101750001368013313604FF47A7205FB02F22A4BCF
:10176000A3FB02320023009392090421274800685A
:1017700002F09EF800234FF0FF321946244800681B
:1017800001F09DF9234A136801331360224C234E64
:10179000336854F8235002F081FB3268204B53F831
:1017A0002230013354F822209B1A90FBF3F203FB02
:1017B000120005441B4A13682B44136001F056FCC9
:1017C0000246194903A802F0D9FC00231A4603A9CE
:1017D0001648006801F049F80128B8D0144A136887
:1017E000013313604FF47A7303FB05F2064BA3FB3E
:1017F000023200230093920904210448006802F099
:1018000057F8B7E7BC020020D34D62107C020020DD
:101810006C0200208C020020280000205C020020C6
:1018200010000020980200201055000880020020BF
:10183000AC02002070B588B012E02D4A1368013365
:1018400013604FF47A7205FB02F22A4BA3FB0232BB
:1018500000230093920904212748006802F028F829
:1018600000234FF0FF3219462448006801F027F9A1
:10187000234A136801331360224C234E336854F813
:10188000235002F00BFB3268204B53F82230013317
:1018900054F822209B1A90FBF3F203FB120005443C
:1018A0001B4A13682B44136001F0E0FB0246194900
:1018B00003A802F063FC00231A4603A91648006837
:1018C00000F0D3FF0128B8D0144A13680133136025
:1018D0004FF47A7303FB05F2064BA3FB023200239D
:1018E0000093920904210448006801F0E1FFB7E782
:1018F000B8020020D34D6210780200206802002058
:1019000088020020280000205C0200201000002037
:10191000940200202055000880020020A802002028
:1019200070B588B012E02D4A1368013313604FF48C
:101930007A7205FB02F22A4BA3FB023200230093CA
:10194000920904212748006801F0B2FF00234FF0FC
:10195000FF3219462448006801F0B1F8234A1368A1
:1019600001331360224C234E336854F8235002F0A5
:1019700095FA3268204B53F82230013354F8222074
:101980009B1A90FBF3F203FB120005441B4A1368F9
:101990002B44136001F06AFB0246194903A802F0C8
:1019A000EDFB00231A4603A91648006800F05DFF0E
:1019B0000128B8D0144A1368013313604FF47A73C6
:1019C00003FB05F2064BA3FB0232002300939209AE
:1019D00004210448006801F06BFFB7E7B40200205F
:1019E000D34D6210740200206402002084020020A3
:1019F000280000205C02002010000020900200203F
:101A00002055000880020020A402002000B587B005
:101A100000234FF0FF3219460A48006801F04FF8E2
:101A200000231A4601A90848006801F048F8012877
:101A3000EED1064A13680133136001A802F096FB49
:101A4000E6E700BF60020020800200209C02002028
:101A50002DE9F04F85B0DFF85CB2DFF85CA2DBF86F
:101A60000030DAF800201344DFF85092D9F8002053
:101A700013440393DFF84882724FD8F800403B6864
:101A80001C44714E33681C44704D2968704B1A68B1
:101A90000131704802F002FB03996F4802F0FEFA30
:101AA00021466E4802F0FAFADBF800106C4802F0AA
:101AB000F5FADAF800106B4802F0F0FAD9F80010E5
:101AC000694802F0EBFAD8F80010684802F0E6FA2C
:101AD0003968674802F0E2FA3168664802F0DEFAD7
:101AE0000021CBF80010CAF80010C9F80010C8F89F
:101AF000001039603160604B1960604B1960604BB9
:101B00001960604B1960604B1960604B1960604B45
:101B10001960604B186800F031FE2B6801332B60B0
:101B2000052B68DC5C4F57F8236002F0B7F9A94633
:101B30002A68DFF8908158F8223057F822505B1B52
:101B4000013390FBF3F203FB1200064402F0A6F906
:101B5000D9F8002058F8223057F822401B1B0133D7
:101B600090FBF3F203FB1200054402F097F9D9F859
:101B7000002058F8223057F822209B1A013390FB9E
:101B8000F3F203FB120004443C4A1368334413602D
:101B90003B4A13682B4413603A4A1368234413608A
:101BA0004FF47A7808FB06F23C4EA6FB023200277F
:101BB00000973B46920904213948006801F078FEFD
:101BC00008FB05F2A6FB023200973B46920904216E
:101BD0003448006801F06CFE08FB04F2A6FB0262C8
:101BE00000973B46920904212F48006801F060FEEF
:101BF00005B0BDE8F08F2D4802F0B8FA002400943B
:101C00002346224605212648006801F051FE009433
:101C10002346224605212348006801F049FE00942E
:101C20002346224605212048006801F041FE009429
:101C30002346224605211E48006801F039FE204651
:101C400002F01AF9A8020020A40200205C02002081
:101C5000400000202C550008485500086455000835
:101C600084550008A4550008C4550008E455000830
:101C7000085600082C5600089C02002098020020FC
:101C800094020020900200208C0200208802002094
:101C9000840200208002002028000020D34D621022
:101CA0007C020020780200207402002050560008B8
:101CB00070020020BC020020B8020020B402002004
:101CC000AC0200201000002008B5084B1B68B3F5DB
:101CD0007A7F07D000231A4619460548006800F0AD
:101CE000C4FD08BDFFF7B4FEFBE700BF9C02002067
:101CF0006002002010B50024114B1C60114B1C60C9
:101D0000114B1C60114B1C60114B1C60114B1C6073
:101D1000114B1C60114B1C60114B1C602146114B78
:101D2000186800F02BFD104B1C60104B1C60104B12
:101D30001C60104B1C60104B1C60104B1C6010BDD5
:101D4000BC020020B8020020B4020020B002002033
:101D5000AC020020A8020020A4020020A002002063
:101D60009C020020800200209802002094020020A3
:101D7000900200208C0200208802002084020020B3
:101D80002DE9F04F83B000221421814B186800F038
:101D900048FD804B1860FFF7ADFF0024019402233B
:101DA0000093234682227C497C4801F0E5F80194A7
:101DB000012500952346822279497A4801F0DCF812
:101DC00001940095234682227749784801F0D4F89F
:101DD000019403260096234682227549754801F036
:101DE000CBF832462146284600F01BFD724B1860A6
:101DF00032462146284600F014FD704B18603246EA
:101E00002146284600F00DFD6D4B186032462146F4
:101E1000284600F006FD6B4B18606B4EDFF8EC9126
:101E2000D9F8003056F8238002F038F8D9F80020AD
:101E3000DFF8DCA15AF8223056F82270DB1B2B4465
:101E400090FBF3F203FB1200804402F027F8D9F86C
:101E500000205AF8223056F822B0A3EB0B032B4493
:101E600090FBF3F203FB1200074402F017F8D9F8D5
:101E700000205AF8223056F822209B1A2B4490FB5F
:101E8000F3F203FB12008344504A13684344136087
:101E90004F4A13683B4413604E4A13685B44136017
:101EA0004D4A13682B4413604C4A13682B4413604B
:101EB0004B4A13682B4413604FF47A7A0AFB08F1FB
:101EC000DFF85091A9FB0131464B009323462A4687
:101ED0008909454801F0D2FCDFF83C81C8F80000D0
:101EE0000AFB07F1A9FB0131404B009323462A4628
:101EF00089093F4801F0C2FC3E4F38600AFB0BF1F4
:101F0000A9FB01913C4B009323462A4689093B4893
:101F100001F0B4FCDFF80491C9F80000384B0093DD
:101F200023462A466421374801F0A8FC364E30602B
:101F3000D8F8008001F09AF802460094234629461A
:101F4000404601F0B5FC3F6801F090F8024600946D
:101F500023462946384601F0ABFCD9F8007001F061
:101F600085F80246009423462946384601F0A0FC35
:101F7000366801F07BF80246009423462946304635
:101F800001F096FC01F028F8204603B0BDE8F08F80
:101F900040000020800200205C560008491700081D
:101FA00064560008351800086C560008211900080E
:101FB000745600080D1A00086C0200206802002008
:101FC0006402002060020020280000209802002007
:101FD00094020020900200208C0200208802002041
:101FE0008402002001170008845600081917000811
:101FF000945600087802002031170008A456000803
:10200000C91C0008B4560008700200205C020020C1
:1020100010000020D34D62107C02002074020020CA
:10202000FEE7FEE700B583B000F02AF90190019BBE
:1020300003B05DF804FB704770470000124A12F0CD
:10204000070F1ED0D11D21F00701C1F596331344AF
:102050000A460E480260002141601344083B23F009
:1020600007030B48036059601960991A51601360A7
:10207000084B1960084B1960084B4FF000421A607A
:1020800070474FF49633E4E7D8020020D0020020D6
:10209000CC020020C4020020C8020020C0020020A0
:1020A000164B1A461B688342FBD3516802EB010CA6
:1020B000844509D0416800EB010C634509D00360F9
:1020C000904219D01060704740680144516010463A
:1020D000F0E710B40A4C2468A3420BD05B681944A3
:1020E000416013681B680360904200D010605DF887
:1020F000044B70470460F7E7704700BFD002002030
:10210000CC02002038B5044600F0A8FF3B4B1B680A
:10211000ABB13B4B1B681C4214D1002C66D004F1C0
:10212000080214F0070F02D022F007020832D2B1E1
:10213000344B1B6893421AD333490C681DE0FFF7F8
:102140007DFFE6E701F02CF80025FFF769FF15F0A9
:10215000070F51D04FF0500383F31188BFF36F8FF7
:10216000BFF34F8FFEE701F01BF80025EDE701F00C
:1021700017F80025E9E721461C466368934202D21E
:102180002368002BF7D11D4B1B68A34214D00D68A8
:10219000083523680B6063689B1A102B14D9A018AC
:1021A00010F0070F0CD04FF0500383F31188BFF3EA
:1021B0006F8FBFF34F8FFEE700F0F2FF0025C4E7FB
:1021C00043606260FFF76CFF62680E490B689B1A00
:1021D0000B600E4909688B4201D20C490B60084B19
:1021E0001B68134363600023236000E0002500F0B8
:1021F000D7FF002DABD1A8E7284638BDCC02002080
:10220000C0020020C8020020D0020020C40200202A
:1022100080B338B50446A0F1080550F8043C164ACE
:102220001268134208D14FF0500383F31188BFF3B3
:102230006F8FBFF34F8FFEE750F8081C41B14FF08E
:10224000500383F31188BFF36F8FBFF34F8FFEE707
:1022500023EA020340F8043C00F000FF54F8041C99
:10226000064A13680B4413602846FFF719FF00F075
:1022700097FF38BD704700BFC0020020C802002091
:10228000014B1868704700BFC80200200B4B1B6849
:10229000B3F1FF3F08D04FF0500383F31188BFF331
:1022A0006F8FBFF34F8FFEE74FF0500383F311881A
:1022B000BFF36F8FBFF34F8FFEE700BF44000020D6
:1022C00006480068006880F3088862B661B6BFF30C
:1022D0004F8FBFF36F8F00DF00BF000008ED00E0FD
:1022E0004FF0807340F8043C21F0010140F8081CD5
:1022F000054B40F80C3C40F8202C6FF0020340F8EE
:10230000243C4438704700BF8D22000800000000C4
:10231000074B19680868B0E8F04F80F30988BFF3ED
:102320006F8F4FF0000080F311887047AFF300808B
:10233000203001204FF0500383F31188BFF36F8FDB
:10234000BFF34F8F0B4A136801331360012B00D08A
:1023500070474FF0E023D3F8043D13F0FF0FF7D0A0
:102360004FF0500383F31188BFF36F8FBFF34F8F8C
:10237000FEE700BF44000020094B1B6843B94FF043
:10238000500383F31188BFF36F8FBFF34F8FFEE7C6
:10239000013B034A13600BB983F31188704700BFF8
:1023A00044000020000000000000000000000000C9
:1023B000EFF30980BFF36F8F154B1A681EF0100FF3
:1023C00008BF20ED108A20E9F04F10604DF8043D61
:1023D0004FF0500080F31188BFF34F8FBFF36F8F22
:1023E00000F0A0FF4FF0000080F3118808BC1968CE
:1023F0000868B0E8F04F1EF0100F08BFB0EC108A6C
:1024000080F30988BFF36F8F704700BFAFF3008080
:102410002030012008B54FF0500383F31188BFF33B
:102420006F8FBFF34F8F00F027FE28B14FF0E023EE
:102430004FF08052C3F8042D002383F3118808BDA8
:10244000064B1B68064AA2FB03239B09013B4FF086
:10245000E022536107231361704700BF0C00002086
:10246000D34D62104FF0E023D3F8002D344B9A4245
:102470001CD04FF0E023D3F8002D324B9A421ED0EF
:1024800010B582B0304B1A78D2B20192FF221A7086
:102490001B78DBB28DF803309DF8033003F0500356
:1024A0002A4A13702A4B07221A601BE04FF0500390
:1024B00083F31188BFF36F8FBFF34F8FFEE74FF0A9
:1024C000500383F31188BFF36F8FBFF34F8FFEE785
:1024D0001F4A1368013B13609DF803305B00DBB2B9
:1024E0008DF803309DF8033013F0800FF0D1184AB7
:1024F00013681B02136003F4E0631360019BDBB2FB
:10250000114A13704FF0E024D4F8203D43F47003D7
:10251000C4F8203DD4F8203D43F07043C4F8203D7A
:10252000FFF78EFF0B4B00221A60D4F8343F43F0C4
:102530004043C4F8343FFFF7C3FEFFF7A7FE00BFD8
:1025400071C20F4170C20F4100E400E0DC2E012097
:10255000D82E012044000020EFF305830F2B0FD964
:10256000114A9B5CDBB2114A12789A4208D94FF0AB
:10257000500383F31188BFF36F8FBFF34F8FFEE7D4
:102580004FF0E023D3F80C3D03F4E063084A1268EF
:10259000934208D94FF0500383F31188BFF36F8F34
:1025A000BFF34F8FFEE77047F0E300E0DC2E012021
:1025B000D82E012000F1080343604FF0FF32826003
:1025C000C360036100230360704700230361704709
:1025D00043684B609A688A6051609960086103683B
:1025E00001330360704730B40D68B5F1FF3F11D07F
:1025F00000F108031C465B681A68AA42FAD96368AE
:102600004B6099608C60616008610368013303600E
:1026100030BC70470469F2E70369416882688A60E8
:10262000416851605A68824205D0002202611868F0
:1026300001381860704782685A60F6E710B50446A2
:10264000FFF778FEA26BE36B9A4204D00024FFF7F9
:1026500093FE204610BD0124F9E710B50446FFF7AC
:1026600069FEA36B23B90124FFF786FE204610BD47
:102670000024F9E770B504461546866B026C5AB91A
:1026800003681BB100200136A66370BD406800F0EE
:10269000E5FF00236360F6E76DB9806801F0FFFE97
:1026A000A368226C1344A3606268934219D3236821
:1026B000A3602846E7E7C06801F0F1FEE368226CFA
:1026C00051429B1AE3602268934202D263680B4432
:1026D000E360022D01D00020D5E726B1013E0020A5
:1026E000D1E72846CFE70020CDE70346026C6AB168
:1026F00010B50846D9681144D9605C68A14201D37D
:102700001968D960D96801F0CAFE10BD704738B5A4
:102710000546FFF70FFE95F8454064B201E0013C25
:1027200064B2002C0ADD6B6A43B105F1240000F0AD
:1027300093FE0028F3D000F02BFFF0E7FF2385F88D
:102740004530FFF719FEFFF7F5FD95F8444064B2F8
:1027500001E0013C64B2002C0ADD2B6943B105F1B4
:10276000100000F079FE0028F3D000F011FFF0E730
:10277000FF2385F84430FFF7FFFD38BD38B5E0B1E1
:102780000D460446FFF7D6FD2368E26B216C01FB82
:10279000023060600020A063A360013A02FB0133B5
:1027A000E360FF2384F8443084F84530FDB92369A1
:1027B00063B9FFF7E1FD012038BD4FF0500383F30B
:1027C0001188BFF36F8FBFF34F8FFEE704F1100046
:1027D00000F042FE0028ECD04FF0E0234FF0805292
:1027E000C3F8042DBFF34F8FBFF36F8FE1E704F100
:1027F0001000FFF7DFFE04F12400FFF7DBFED8E74F
:1028000038B51D46049C0B4649B92460E063236437
:1028100001212046FFF7B2FF84F84C5038BD2260FA
:10282000F4E740B94FF0500383F31188BFF36F8F83
:10283000BFF34F8FFEE7F0B583B00C461546064652
:1028400089B101FB00F05030FFF75CFC074638B15E
:1028500000902B4600F1500221463046FFF7D0FF92
:10286000384603B0F0BD0846EDE7F0B585B00192FB
:1028700088B10F461D460446B1B1022D20D1E36B4D
:10288000012B1DD04FF0500383F31188BFF36F8FDE
:10289000BFF34F8FFEE74FF0500383F31188BFF370
:1028A0006F8FBFF34F8FFEE7036C002BE5D04FF027
:1028B000500383F31188BFF36F8FBFF34F8FFEE791
:1028C00000F06CFE064658B9019B002B48D04FF033
:1028D000500383F31188BFF36F8FBFF34F8FFEE771
:1028E00000263DE02A4639462046FFF7C3FE636ACC
:1028F0007BB948B14FF0E0234FF08052C3F8042D6C
:10290000BFF34F8FBFF36F8FFFF736FD012005B088
:10291000F0BD04F1240000F09FFD0028F4D04FF03A
:10292000E0234FF08052C3F8042DBFF34F8FBFF365
:102930006F8FE9E7FFF720FD0020E8E702A800F02D
:10294000D1FD012619E0002384F8443021E0002362
:1029500084F8453023E02046FFF7D9FE00F020FC44
:10296000FFF7E8FCA26BE36B9A42BBD3022DB9D010
:10297000019B002BDED0002EE0D0FFF7FDFC00F025
:102980006DFBFFF7D7FC94F8442052B2B2F1FF3F41
:10299000D9D094F8452052B2B2F1FF3FD7D0FFF71B
:1029A000EBFC01A902A800F0B3FDD8B92046FFF75F
:1029B00045FE0028CFD0019904F1100000F018FD69
:1029C0002046FFF7A4FE00F0EBFB0028C8D14FF033
:1029D000E0234FF08052C3F8042DBFF34F8FBFF3B5
:1029E0006F8FBDE72046FFF792FE00F0D9FB002075
:1029F0008DE72DE9F84390B10F4616461C46054673
:102A0000B1B1022C20D1EB6B012B1DD04FF0500344
:102A100083F31188BFF36F8FBFF34F8FFEE74FF043
:102A2000500383F31188BFF36F8FBFF34F8FFEE71F
:102A3000036C002BE5D04FF0500383F31188BFF3F4
:102A40006F8FBFF34F8FFEE7FFF786FDEFF311881F
:102A50004FF0500383F31188BFF36F8FBFF34F8F95
:102A6000AA6BEB6B9A4206D3022C04D0002088F3A9
:102A70001188BDE8F88395F845904FFA89F9224608
:102A800039462846FFF7F6FDB9F1FF3F06D009F1B8
:102A900001035BB285F845300120E8E76B6A0BB9AA
:102AA0000120E4E705F1240000F0D6FC18B126B1BE
:102AB00001203060DBE70120D9E70120D7E72DE9CD
:102AC000F04184B00192A0B10E4698460446C9B1C7
:102AD00000F064FD054608BB019B002B00F08780D9
:102AE0004FF0500383F31188BFF36F8FBFF34F8F05
:102AF000FEE74FF0500383F31188BFF36F8FBFF3EE
:102B00004F8FFEE7036C002BE2D04FF0500383F3AE
:102B10001188BFF36F8FBFF34F8FFEE7002566E08C
:102B2000E56831462046FFF7E0FDB8F1000F20D1FF
:102B30007B1EA36323683BB123694BB9FFF71CFCE1
:102B4000012004B0BDE8F08100F0E0FD6060F3E733
:102B500004F1100000F080FC0028EFD04FF0E023DB
:102B60004FF08052C3F8042DBFF34F8FBFF36F8F28
:102B7000E4E7E560636A002BE0D004F1240000F094
:102B80006BFC0028DAD04FF0E0234FF08052C3F8FE
:102B9000042DBFF34F8FBFF36F8FCFE7FFF7ECFB31
:102BA0000020CEE702A800F09DFC012529E00023CB
:102BB00084F8443031E0002384F8453033E0FFF7F7
:102BC000B9FB606800F0FAFCFFF7D6FB3BE020465B
:102BD000FFF79DFD00F0E4FA09E02046FFF797FDBE
:102BE00000F0DEFA2046FFF738FD002842D1FFF75B
:102BF000A1FBA76B002F93D1019B002BCED0002D02
:102C0000D0D0FFF7B9FB00F029FAFFF793FB94F857
:102C1000442052B2B2F1FF3FC9D094F8452052B2DD
:102C2000B2F1FF3FC7D0FFF7A7FB01A902A800F050
:102C30006FFC0028D1D12046FFF70FFD0028C6D039
:102C40002368002BBBD0019904F1240000F0D0FBD5
:102C50002046FFF75CFD00F0A3FA0028C7D14FF033
:102C6000E0234FF08052C3F8042DBFF34F8FBFF322
:102C70006F8FBCE7002064E70023072B0CD8074ABE
:102C800052F833200AB10133F7E7044A42F833100F
:102C900002EBC30250607047704700BFE02E012076
:102CA00070B504460D461646FFF744FB94F84430D1
:102CB0005BB2B3F1FF3F0DD094F845305BB2B3F196
:102CC000FF3F0BD0FFF758FBA36B5BB12046FFF72C
:102CD0001EFD70BD002384F84430EDE7002384F826
:102CE0004530EFE73246294604F1240000F098FB16
:102CF000ECE70000084B1B681B6823B9074B4FF03B
:102D0000FF321A607047044B1B68DB68DB685A6847
:102D1000024B1A60704700BF902F0120282F01201E
:102D200010B50446006BFFF773FA2046FFF770FA00
:102D300010BD2DE9F04780460D4617469946089E7E
:102D4000DDF824A00A9C9200A521206B01F046FB2F
:102D5000236B07F18042013A03EB820727F0070754
:102D60004FF0000CBCF1090F09D815F90C3004EB39
:102D70000C0282F8343013B10CF1010CF2E700239D
:102D800084F83D30042E00D90426E662A6640025AE
:102D9000E564201DFFF719FC04F11800FFF715FC8E
:102DA0002461C6F10506A6616462256584F8545065
:102DB0004A4641463846FFF793FA2060BAF1000FC1
:102DC00001D0CAF80040BDE8F087000038B5002403
:102DD00007E004EB840293000E481844FFF7EAFB77
:102DE0000134042CF5D90C4D2846FFF7E3FB0B4CBE
:102DF0002046FFF7DFFB0A48FFF7DCFB0948FFF737
:102E0000D9FB0948FFF7D6FB084B1D60084B1C6037
:102E100038BD00BFBC2F0120A82F0120942F012016
:102E2000782F0120642F01204C2F0120902F0120AA
:102E30008C2F012010B50446FFF77CFA224A136854
:102E400001331360214B1B685BB1214B1B686BB9CD
:102E50001E4B1B68DA6AE36A9A4207D81B4B1C6058
:102E600004E01A4B1C601368012B29D0194A13681F
:102E7000013313602364E06A01238340164A11681A
:102E80000B43136000EB8000211D144B03EB80000B
:102E9000FFF79EFBFFF770FA0D4B1B687BB10B4BE6
:102EA0001B68DA6AE36A9A4209D24FF0E0234FF0D6
:102EB0008052C3F8042DBFF34F8FBFF36F8F10BD47
:102EC000FFF784FFD2E700BF482F01202030012008
:102ED0003C2F01202C2F0120402F0120BC2F01204E
:102EE00070B504460D461D4B1E681D4B1868043016
:102EF000FFF792FB48B91A4B1B68DB6A01229A4024
:102F000018490B6823EA02030B60B4F1FF3F0DD0B0
:102F10003444134B1B685C60A64210D9124B1868EE
:102F20000F4B19680431FFF75EFB70BD002DEFD029
:102F30000B4B196804310D48FFF74AFBF5E70C4BC2
:102F40001868074B19680431FFF74DFB094B1B68E4
:102F5000A342EAD9074B1C60E7E700BF442F0120DA
:102F600020300120402F01208C2F01204C2F0120E8
:102F7000902F0120282F01202DE9F04385B007462E
:102F80000E4614461D469000FFF7BCF8F8B1814686
:102F90005820FFF7B7F8804698B1C0F8309000236A
:102FA000039302900D9B01930C9B00932B462246AA
:102FB00031463846FFF7BDFE4046FFF73BFF012094
:102FC00007E04846FFF724F94FF0FF3001E04FF0EB
:102FD000FF3005B0BDE8F08300B583B0194B019315
:102FE00000230093822218491848FFF7C5FF0128E3
:102FF00005D0B0F1FF3F1BD003B05DF804FB00F03B
:1030000015FC0128F5D14FF0500383F31188BFF36D
:103010006F8FBFF34F8F0E4B4FF0FF321A600D4B87
:1030200001221A600C4B00221A60FFF71BFAE3E73B
:103030004FF0500383F31188BFF36F8FBFF34F8FAF
:10304000FEE700BF242F0120C4560008F532000817
:10305000282F01203C2F0120442F0120024A136811
:1030600001331360704700BF202F0120014B186807
:10307000704700BF442F0120F8B53E4B1B68002B62
:103080006AD13D4B1D6801351D60C5B93B4B1B68BE
:103090001B6843B14FF0500383F31188BFF36F8F68
:1030A000BFF34F8FFEE7354A1168354B1868106043
:1030B0001960344A136801331360FFF71BFE324B6B
:1030C0001B68AB423ED90027304B1B68DB6A03EB21
:1030D00083039A002E4B9B58012B00D901272D4BBF
:1030E0001B68002B3FD1FEF7A6FF3CE00127234BD6
:1030F0001B681B6843B3214B1B68DB68DC68636893
:103100009D4226D3261D3046FFF786FAA36A1BB1DF
:1031100004F11800FFF780FAE36A01229A401E4981
:10312000086802430A6003EB83039A00314618489B
:103130001044FFF74DFAE26A144B1B68DB6A9A42AF
:10314000D4D2D4E70027D2E70F4B4FF0FF321A60FA
:10315000BAE70D4A1360B7E70E4A136801331360EC
:10316000FEF769FF00270D4B1B6803B101273846A6
:10317000F8BD00BF202F0120442F0120902F0120F7
:103180008C2F0120302F0120282F012020300120FA
:10319000BC2F0120382F0120402F0120342F012087
:1031A00038B5354B1B6843B94FF0500383F3118892
:1031B000BFF36F8FBFF34F8FFEE7FFF7BBF82E4BC8
:1031C0001A68013A1A601B68002B4FD12B4B1B6801
:1031D0000BB900244BE00024294B1B681BB3284B80
:1031E000DB68DC6804F11800FFF716FA251D284695
:1031F000FFF712FAE06A01238340224A11680B4369
:10320000136000EB800029461F4B03EB8000FFF7A3
:10321000DFF9E26A1D4B1B68DB6A9A42DCD31C4B68
:1032200001221A60D8E70CB1FFF764FD194B1C6846
:1032300084B9174B1C68D4B14FF0E0234FF0805293
:10324000C3F8042DBFF34F8FBFF36F8F01240EE03F
:10325000013C07D0FFF710FF0028F9D00C4B0122EA
:103260001A60F5E70B4B00221A60E2E70024FFF733
:1032700083F8204638BD00BF202F0120482F0120B1
:10328000782F0120402F0120BC2F01202030012069
:10329000342F0120382F0120134B1B6813B310B5B6
:1032A000FFF7DCFE114B1C68FFF77AFF24B90E4BC9
:1032B0001B68002BF4D110BDFFF73CF80B4BDB680B
:1032C000DC68201DFFF7A8F9094A1368013B136069
:1032D000054A1368013B1360FFF74EF82046FFF7DD
:1032E0001FFDE4E7704700BF602F0120642F01201D
:1032F000482F012008B50BE04FF0E0234FF080523B
:10330000C3F8042DBFF34F8FBFF36F8FFEF78AFE14
:10331000FFF7C2FF024B1B68012BEDD8F6E700BF99
:10332000BC2F012008B52D4B1B681BB12C4B012273
:103330001A6008BD2A4B00221A602A4B1B681B6BBF
:103340001A68B2F1A53F03D15A68B2F1A53F1BD06C
:10335000244B186819683431FEF763FE224B1B6852
:10336000B3FA83F3DBB2C3F11F0303EB83018A00DB
:103370001E498A588AB94FF0500383F31188BFF36E
:103380006F8FBFF34F8FFEE79A68B2F1A53FDFD191
:10339000DB68B3F1A53FDBD1E0E7144803EB830121
:1033A0008A00024451684968516003EB830C4FEA7C
:1033B0008C0208320244914209D003EB83039A0045
:1033C0000A4B13445B68DA68064B1A60B1E7486839
:1033D00062469100054A0A445060EEE7202F012022
:1033E000342F012020300120402F0120BC2F01204C
:1033F00058B110B50C46094A11681831FFF7F3F8B7
:1034000001212046FFF76CFD10BD4FF0500383F300
:103410001188BFF36F8FBFF34F8FFEE7203001207D
:1034200038B570B10D4614460A4A11681831FFF7D5
:10343000CFF80CB14FF0FF3521462846FFF750FD7D
:1034400038BD4FF0500383F31188BFF36F8FBFF384
:103450004F8FFEE72030012038B5C368DC6824B305
:1034600004F118052846FFF7D7F8184B1B682BBB4B
:10347000251D2846FFF7D0F8E06A01238340144A4F
:1034800011680B43136000EB80002946114B03EBDE
:103490008000FFF79DF8E26A0F4B1B68DB6A9A42D7
:1034A00011D901200D4B186038BD4FF0500383F344
:1034B0001188BFF36F8FBFF34F8FFEE7294608488F
:1034C000FFF786F8E7E70020EEE700BF202F012096
:1034D000402F0120BC2F012020300120342F01205B
:1034E000782F012030B1084A12680260074A12683A
:1034F000426070474FF0500383F31188BFF36F8F22
:10350000BFF34F8FFEE700BF302F0120442F012073
:1035100038B5C0B10C460546F1B1FEF70BFF1A4BAA
:103520001A682368B3F1FF3F27D028681749096854
:10353000884202D06968914224D96968501A83424E
:1035400013D801241AE04FF0500383F31188BFF31E
:103550006F8FBFF34F8FFEE74FF0500383F3118857
:10356000BFF36F8FBFF34F8FFEE7891A0B442360C1
:103570002846FFF7B7FF002400E00024FEF7FCFE1A
:10358000204638BD0124F9E7442F0120302F0120C7
:10359000014B01221A607047342F0120054B1B6834
:1035A00033B1054B1B680BB10020704702207047F8
:1035B000012070473C2F0120202F0120002845D0FA
:1035C00038B50446C36A224A1268D26A934214D2BA
:1035D0008269002A05DB1E4A1268D26AC2F105021E
:1035E0008261616903EB83031A4A02EB8303994208
:1035F00004D0174B1B68DB6AE36238BD251D2846E3
:10360000FFF70AF890B1124B1B68D86AE0620123F9
:103610008340114A11680B43136000EB8000294678
:103620000C4B03EB8000FEF7D3FFE6E7E36A03EB06
:103630008301084A52F82120002AE4D101229A404D
:1036400005490B6823EA02030B60DCE7704700BF03
:1036500020300120BC2F0120402F012000284BD01A
:1036600038B50446264B1B68834208D04FF0500300
:1036700083F31188BFF36F8FBFF34F8FFEE7C36CE7
:1036800043B94FF0500383F31188BFF36F8FBFF33B
:103690004F8FFEE7013BC364C16A826C91422DD01B
:1036A0000BB1002038BD051D2846FEF7B5FF68B9EF
:1036B000E36A03EB8301134A52F8212032B9012255
:1036C0009A4011490B6823EA02030B60A06CE06288
:1036D000C0F10503A361012404FA00F30A4A11684A
:1036E0000B43136000EB80002946064B03EB800080
:1036F000FEF76EFF2046D5E7002070470020D1E797
:1037000020300120BC2F0120402F0120054B1B68D9
:1037100023B1044B1A68D36C0133D364014B18688E
:10372000704700BF20300120064B1A681368B3FAB7
:1037300083F35B09036013B9D368186870470020EE
:10374000704700BF3430012008B5416000619142EC
:103750000CD8D21A83699A4201D3012008BD011DF9
:10376000094B1868FEF73FFF0020F7E79A4201D2A5
:10377000994206D2011D054B1868FEF734FF002060
:10378000ECE70120EAE700BF3030012034300120AF
:1037900038B5FEF7CFFD0F4B1B6813B1FEF7ECFDFC
:1037A00038BD0D4D2846FEF705FF0C4C2046FEF7B0
:1037B00001FF0B4B1D600B4B1C6000220C210A20EB
:1037C000FFF72FF8034B18600028E7D00649FFF7F2
:1037D00053FAE3E72C3001204C300120383001202F
:1037E0003430012030300120CC5600082DE9F04162
:1037F000079F41B94FF0500383F31188BFF36F8FD8
:10380000BFF34F8FFEE7064615461C4688465FB15C
:10381000FFF7BEFF3E60C7F81880FD613C62069B63
:103820007B62381DFEF7D1FEBDE8F08100B583B0A4
:10383000FFF7AEFF0D4B1B685BB10D4B01930223ED
:10384000009300234FF482720A490B48FFF794FB60
:1038500040B94FF0500383F31188BFF36F8FBFF36C
:103860004F8FFEE703B05DF804FB00BF2C30012052
:1038700028300120D4560008713B00082DE9F041A2
:1038800082B00446884615461E462C20FEF73AFCB8
:10389000074640B10190089B009333462A464146B3
:1038A0002046FFF7A3FF384602B0BDE8F0810000D4
:1038B000B8B19C4603461848006858B300B585B0B7
:1038C00001910292039305291CDCFFF767FE022891
:1038D00010D000231A4601A90F480068FEF7C5FF63
:1038E00015E04FF0500383F31188BFF36F8FBFF3E0
:1038F0004F8FFEE70023069A01A907480068FEF7EC
:10390000B4FF04E00023624601A9FFF772F805B096
:103910005DF804FB002070472C30012070B582B0A8
:103920001A4B1B681A6852B3DB681E68DC68251DD9
:103930002846FEF771FE636A20469847E369012B2B
:10394000EED1A36933449E4207D2636024612946C5
:103950000E4B1868FEF747FEE2E7002100910B4688
:1039600032462046FFF7A4FF0028D9D14FF050037C
:1039700083F31188BFF36F8FBFF34F8FFEE7044AC5
:10398000106802490860136002B070BD3430012035
:103990003030012038B50546FFF768FB0446074B79
:1039A0001B68834205D800232B60044B1C60204613
:1039B00038BDFFF7B3FF01232B60F6E72430012069
:1039C00070B582B006460D4614490968C968CC68CE
:1039D000201DFEF721FEE169012904D0636A20461B
:1039E000984702B070BDA16933462A46314420464B
:1039F000FFF7AAFE0028F1D0002100910B463246C5
:103A00002046FFF755FF0028E8D14FF0500383F31D
:103A10001188BFF36F8FBFF34F8FFEE73430012063
:103A200070B582B006460C46FFF718FB01A8FFF7F9
:103A3000B1FF019B23BB054644B9B0420CD3FFF74D
:103A4000AFFB29463046FFF7BBFF1BE00E4B1B6860
:103A50001C68B4FA84F464092246711B0B4B186885
:103A6000FFF71EF9FFF79CFB60B94FF0E0234FF022
:103A70008052C3F8042DBFF34F8FBFF36F8F01E067
:103A8000FFF78EFB02B070BD303001202C300120DA
:103A900010B586B000231A4603A934480068FFF722
:103AA0000EF8002860D0039B002BF3DB059C6369B4
:103AB00013B1201DFEF7B0FD02A8FFF76BFF039BBB
:103AC000092BE7D801A252F823F000BFF53A00080D
:103AD000F53A0008F53A0008953A00083B3B000823
:103AE000613B0008F53A0008F53A0008953A0008ED
:103AF0003B3B0008049BA169024619442046FFF79E
:103B000023FE0028C6D0636A20469847E369012B4C
:103B1000C0D1A269002100910B46049802442046BE
:103B2000FFF7C6FE0028B5D14FF0500383F311888C
:103B3000BFF36F8FBFF34F8FFEE70499A16131B1DF
:103B40000346024601442046FFF7FEFDA2E74FF080
:103B5000500383F31188BFF36F8FBFF34F8FFEE7DE
:103B60002046FEF755FB95E706B010BD2C3001202E
:103B700000B583B001A8FFF7D7FD0199FFF750FF0B
:103B8000FFF786FFF6E7000053B94AB9002908BFDE
:103B900000281CBF4FF0FF314FF0FF3000F06AB932
:103BA000ADF1080C6DE904CE00F006F8DDF804E094
:103BB000DDE9022304B070472DE9F047089D0E4669
:103BC00004460F46002B4AD194468C45B2FA82F245
:103BD00060D942B1C2F12003974020FA03F30CFAF6
:103BE00002FC1F4394404FEA1C4E1FFA8CF6B7FBB1
:103BF000FEF1230C0EFB117743EA074301FB06F0AD
:103C000098420AD91CEB030301F1FF3780F01581BC
:103C1000984240F21281023963441B1AA4B2B3FBEA
:103C2000FEF00EFB103344EA034400FB06F6A64206
:103C30000AD91CEB040400F1FF3380F00081A64296
:103C400040F2FD806444023840EA0140A41B002198
:103C50001DB1D4400023C5E90043BDE8F0878B4285
:103C600005D90DB1C5E9000100210846F5E7B3FA11
:103C700083F1002946D1B34202D3824200F2F5809B
:103C8000841A66EB030201201746002DE5D0C5E932
:103C90000047E2E7002A40F09380A1EB0C034FEAD3
:103CA0001C471FFA8CFE0121B3FBF7F607FB163009
:103CB000230C43EA00430EFB06F0984208D91CEBA4
:103CC000030306F1FF3802D2984200F2D080464644
:103CD0001B1AA4B2B3FBF7F007FB103344EA03440A
:103CE0000EFB00FEA64508D91CEB040400F1FF33CF
:103CF00002D2A64500F2B6801846A4EB0E0440EAB4
:103D00000640A5E7C1F120078B4022FA07FC4CEAE8
:103D1000030C06FA01FE20FA07F426FA07F344EA38
:103D20000E0400FA01F84FEA1C404FEA1449B3FBB5
:103D3000F0FE1FFA8CF600FB1E3349EA03430EFB2C
:103D400006F9994502FA01F20BD91CEB03030EF1B7
:103D5000FF3A80F08580994540F28280AEF1020EF4
:103D60006344A3EB0909A4B2B9FBF0F300FB139978
:103D700044EA094403FB06F6A64208D91CEB0404F6
:103D800003F1FF3068D2A64266D9023B644443EA9D
:103D90000E40A41BA0FB02E6B4427346B14652D3C8
:103DA0004FD05DB1B8EB030264EB090404FA07F7E6
:103DB00022FA01F31F43CC40C5E9007400214CE70F
:103DC000C2F1200120FA01F30CFA02FC26FA01F1FB
:103DD000964033434FEA1C471FFA8CFEB1FBF7F0C5
:103DE00007FB1016190C41EA064100FB0EF68E4245
:103DF00004FA02F408D91CEB010100F1FF382DD2BE
:103E00008E422BD902386144891B9BB2B1FBF7F675
:103E100007FB161143EA014306FB0EF1994208D94C
:103E20001CEB030306F1FF3814D2994212D9023E6B
:103E300063445B1A46EA004136E73946EDE6184628
:103E400002E7F045ADD2BEEB020366EB0C0601388B
:103E5000B146A6E74646ECE7034698E74046D3E777
:103E6000D6467EE76444023847E708460DE7023E3F
:103E700063442DE7704700BF08B5064B044613B1F5
:103E80000021AFF30080044B1B6803B19847204624
:103E9000FDF726F80000000098310120164B10B500
:103EA0001C68236BB3B9182000F05AFB024620634C
:103EB00020B9124B12485221FCF792FF1149124BC4
:103EC000C0E90013114B83600B2383810021012083
:103ED000C2E90401216B0E480B694C690D4A584335
:103EE00002FB0400A3FB0232013340EB0200C1E9F4
:103EF000043020F0004010BD54000020EC560008B3
:103F0000035700080E33CDAB34126DE6ECDE05002E
:103F10002DF451582D7F954C002310B50446C0E96F
:103F20000033C0E90433836081814366C2818361C9
:103F3000194608225C3000F051FA0D4B63620D4BBC
:103F4000A3620D4BE3620D4B23630D4B24629C4235
:103F500006D003F16802944202D0D0339C4205D1CE
:103F600004F15800BDE8104000F08CBA10BD00BF4D
:103F7000BD410008DF410008174200083B4200082D
:103F800060300120024A0349034800F069B800BFCD
:103F900048000020215000085800002041680C4BC8
:103FA000994210B5044601D001F03AF8A168094BD6
:103FB000994202D0204601F033F8E168064B99425D
:103FC00004D02046BDE8104001F02AB810BD00BF63
:103FD00060300120C83001203031012010B50B4B7A
:103FE0000B4C0C4A1A60204600220421FFF794FF74
:103FF00004F1680001220921FFF78EFF04F1D000CF
:104000000222BDE810401221FFF786BF983101203F
:1040100060300120853F0008014800F034BA00BF3D
:104020009D310120014800F02FBA00BF9D310120D1
:1040300010B50446FFF7F0FF236A1BB1BDE810403E
:10404000FFF7F0BF044B2362044B1B68002BF5D134
:10405000FFF7C4FFF2E700BF9D3F00089831012041
:104060002DE9F8430746884614460026D4E9019511
:10407000B9F1010905D52468002CF7D13046BDE817
:10408000F883AB89012B07D9B5F90E30013303D082
:1040900029463846C04706436835E9E70FB407B5F7
:1040A000064904AB086853F8042B8168019300F0BB
:1040B0008FFC03B05DF804EB04B07047540000209F
:1040C000036A70B5846805460E460BB9FFF7B0FF6A
:1040D000636EDB0705D4A389980502D4A06D00F0B8
:1040E000D2F9A389190702D52369002B35D12146BE
:1040F000284600F01DF980B34FF0FF35636EDA07F4
:1041000005D4A3899B0502D4A06D00F0BDF9284613
:1041100070BD002B04DAA2699A4217DC0A2915D077
:1041200023685A1C22601970A36816F8011F013B0E
:10413000A3600029EDD1002B11DA22460A2128467E
:1041400000F0B8F80130D7D00A25D7E72246284634
:1041500000F0B0F80130E7D1CEE7013EE4E7236894
:104160005A1C22600A221A70EEE70000024B014638
:104170001868FFF7A5BF00BF540000200EB400B5BB
:104180009CB01DAB029006906FF00041094807916A
:104190000491094953F8042B05910068019302A981
:1041A00000F0F0FA029B00221A701CB05DF804EBDC
:1041B00003B07047540000200802FFFF10B50C4602
:1041C000B1F90E1000F034F90028ABBF636DA3897C
:1041D0001B1823F48053ACBF6365A38110BD2DE988
:1041E000F0411F468B89DB0505460C46164605D572
:1041F000B1F90E100223002200F008F9A389B4F9E6
:104200000E1023F48053A38132463B462846BDE876
:10421000F04100F01FB910B50C46B1F90E1000F0D6
:10422000F5F8431CA38915BF606523F4805343F45C
:104230008053A38118BFA38110BDB1F90E1000F007
:10424000D5B830B51446002C9BB005461A4605DAA1
:104250008B2303604FF0FF301BB030BD4FF402736F
:10426000ADF80C3014BF04F1FF33234602930593DD
:104270004FF6FF7300910491ADF80E3069461E9B16
:1042800000F080FA431CBCBF8B232B60002CE3D0D2
:10429000009B00221A70DFE707B5009313460A4619
:1042A000014603480068FFF7CCFF03B05DF804FB4C
:1042B00054000020F8B50E461446054618B1036AAE
:1042C0000BB9FFF7B5FEA369A360A3891A0701D54F
:1042D000236943B92146284600F02AF818B14FF067
:1042E000FF373846F8BD23682269981A6369F6B229
:1042F0008342374605DC2146284600F091FE00281F
:10430000EDD1A368013BA36023685A1C22601E7094
:104310006269431C9A4204D0A389DB07E1D50A2EC7
:10432000DFD12146284600F07BFE0028D9D0D6E711
:1043300038B5294B054618680C4618B1036A0BB905
:10434000FFF776FEB4F90C30190722D4DA0607D449
:1043500009222A6043F04003A3814FF0FF3033E08D
:10436000580712D5616B41B104F14403994202D060
:10437000284600F0ABF800236363A38923F02403ED
:10438000A3810023636023692360A38943F00803AA
:10439000A38123694BB9A38903F42073B3F5007F8C
:1043A00003D02146284600F089FEB4F90C3013F002
:1043B00001020AD00022A26062695242A26122690F
:1043C00042B913F08000C5D138BD990758BF626962
:1043D000A260F4E70020F7E75400002002440346FF
:1043E000934200D1704703F8011BF9E738B5064D39
:1043F0000023044608462B60FCF7F2FE431C02D162
:104400002B6803B1236038BDD801002038B5074DB3
:1044100004460846114600222A601A46FCF79AFE16
:10442000431C02D12B6803B1236038BDD8010020A2
:1044300038B5074D04460846114600222A601A4640
:10444000FCF722FE431C02D12B6803B1236038BD68
:10445000D801002038B5074D044608461146002211
:104460002A601A46FCF78AFE431C02D12B6803B16E
:10447000236038BDD8010020014B1868704700BF89
:104480005400002070477047704710F8012B11F856
:10449000013B012A28BF9A42F7D0D01A70470A443C
:1044A000914200F1FF3300D1704710B511F8014B74
:1044B00003F8014F9142F9D110BD034613F8012BC7
:1044C000002AFBD1181A01387047000038B505469C
:1044D000002941D051F8043C0C1F002BB8BFE41850
:1044E00000F0E8F81D4A136833B963601460284689
:1044F000BDE8384000F0E4B8A34208D9206821188C
:104500008B4201BF19685B6809182160EDE71A4604
:104510005B680BB1A342FAD911685018A0420BD1C5
:1045200020680144501883421160E0D118685B682C
:10453000536008441060DAE702D90C232B60D6E7F9
:10454000206821188B4204BF19685B68636004BF50
:10455000091821605460CAE738BD00BFA4310120AA
:10456000024B0146186800F025B800BF5400002037
:1045700070B50F4E0C463168054611B900F016FEB5
:1045800030602146284600F011FE431C03D14FF055
:10459000FF34204670BDC41C24F00304A042F8D0B0
:1045A000211A284600F002FE0130F2D1EFE700BFE9
:1045B000A03101202DE9F843CD1C25F00305083575
:1045C0000C2D38BF0C25002D064601DBA94204D96D
:1045D0000C2333600020BDE8F883DFF8D48000F0BE
:1045E00069F8D8F800301C4644BB29463046FFF72E
:1045F000BFFF431C044658D1D8F800402746002F7F
:1046000043D1002C4BD023683946304604EB0309D4
:1046100000F0CCFD814542D121686D1A2946304613
:10462000FFF7A6FF01303AD023682B442360D8F867
:1046300000305A6862BBC8F800700FE02268521B55
:1046400020D40B2A17D96119A342256018BF5960DD
:10465000636808BFC8F8001062514B60304600F034
:104660002FF804F10B00231D20F00700C21A1CBF15
:104670001B1AA350AFE76268A3420CBFC8F8002022
:104680005A60EBE723466468AEE73C467F68B6E7CE
:104690001A465B68A342FBD100235360DEE70C237C
:1046A0003360304600F00CF894E70560D6E700BFB1
:1046B000A43101200148FFF7E6BE00BF9C31012074
:1046C0000148FFF7E1BE00BF9C3101202DE9F04712
:1046D0008E681F46BE420B6882460C4690462DD817
:1046E000B1F90C2012F4906F26D06569096905EBC9
:1046F0004505A3EB010905EBD5757B1C4B446D10FB
:104700009D4238BF1D46530527D52946FFF752FF66
:10471000064660B321694A46FFF7C1FEA38923F428
:10472000906343F08003A381266165614E44A5EB4D
:1047300009052660A5603E46BE4200D93E46206877
:104740003246414600F0F6FCA3689B1BA360236839
:10475000334423600020BDE8F0872A4600F088FD3E
:1047600006460028E0D121695046FFF7AFFE0C2332
:10477000CAF80030A38943F04003A3814FF0FF3013
:10478000E9E700002DE9F04F98468B891B069DB0A4
:1047900007460D46144610D50B6973B94021FFF743
:1047A00009FF2860286130B90C233B604FF0FF30CF
:1047B0001DB0BDE8F08F40236B61002309932023D7
:1047C0008DF82930CDF80C803023DFF89C818DF8EE
:1047D0002A304FF0010923469A4613F8012B0AB1FB
:1047E000252AF9D1BAEB040B0BD05B4622462946A9
:1047F0003846FFF76BFF013000F0A780099A5A4452
:1048000009929AF80030002B00F09F8000234FF0AF
:10481000FF32CDE905230AF1010A049307938DF8CD
:1048200053301A935446052214F8011B4E4800F0E9
:10483000CFFC049AD8B9D00644BF20238DF853305A
:10484000110744BF2B238DF853309AF800302A2BE0
:1048500015D0079A544600204FF00A0C214611F853
:10486000013B303B092B4BD9B0B1079214E0A0EBD0
:10487000080309FA03F313430493A246D2E7039B08
:10488000191D1B680391002BBBBF5B4242F0020263
:1048900007930793B8BF049223782E2B0AD163782D
:1048A0002A2B32D1039B1A1D1B68039243EAE37340
:1048B00002340593DFF8C0A021780322504600F0AF
:1048C00087FC38B1049BA0EB0A00402282401343CE
:1048D0000134049314F8011B24488DF82810062293
:1048E00000F076FC002836D0214B1BBB039B07331E
:1048F00023F0070308330393099B334409936AE7C2
:104900000CFB02320C460120A8E70023013405937A
:1049100019464FF00A0C204610F8012B303A092AAC
:1049200003D9002BC6D00591C4E70CFB0121044636
:104930000123F0E703AB00932A460E4B04A9384647
:10494000AFF30080421C0646D6D1AB895B063FF52B
:104950002DAF09982CE703AB00932A46054B04A919
:10496000384600F0BBF9EDE7785700088257000899
:1049700000000000CD4600087E5700089368013B08
:10498000002B10B4936008DA9469A34201DB0A2972
:1049900003D15DF8044BFFF78DBC1368581C106001
:1049A000197008465DF8044B7047F8B506460F4687
:1049B0001446D518AC4201D1002007E014F8011BC1
:1049C0003A463046FFF7DAFF431CF3D1F8BD00004A
:1049D0002DE9F04F0D469DB014469846064618B195
:1049E000036A0BB9FFF724FB6B6ED90705D4AB89BB
:1049F0009A0502D4A86DFFF746FDAB891B0701D5C8
:104A00002B699BB929463046FFF792FC70B16B6E5B
:104A1000DC0704D54FF0FF301DB0BDE8F08FAB8947
:104A20009805F7D4A86DFFF72FFDF3E7002309934E
:104A300020238DF82930CDF80C803023DFF8AC81AD
:104A40008DF82A304FF0010923469A4613F8012BBE
:104A50000AB1252AF9D1BAEB040B0BD05B462246EA
:104A600029463046FFF7A1FF013000F0A780099AE0
:104A70005A4409929AF80030002B00F09F800023DE
:104A80004FF0FF32CDE905230AF1010A04930793A1
:104A90008DF853301A935446052214F8011B5348DD
:104AA00000F096FB049AD8B9D10644BF20238DF8B4
:104AB0005330130744BF2B238DF853309AF800303E
:104AC0002A2B15D0079A544600204FF00A0C214695
:104AD00011F8013B303B092B4BD9B0B1079214E0E0
:104AE000A0EB080309FA03F313430493A246D2E7A9
:104AF000039B191D1B680391002BBBBF5B4242F057
:104B0000020207930793B8BF049223782E2B0AD191
:104B100063782A2B32D1039B1A1D1B68039243EA48
:104B2000E37302340593DFF8D4A0217803225046C2
:104B300000F04EFB38B1049BA0EB0A0040228240FB
:104B400013430134049314F8011B29488DF82810ED
:104B5000062200F03DFB00283FD0264B1BBB039BE9
:104B6000073323F0070308330393099B3B4409935E
:104B70006AE70CFB02320C460120A8E7002301344F
:104B8000059319464FF00A0C204610F8012B303AD5
:104B9000092A03D9002BC6D00591C4E70CFB0121DB
:104BA00004460123F0E703AB00932A46124B04A905
:104BB0003046AFF300800746781CD6D16B6ED9071C
:104BC00005D4AB899A0502D4A86DFFF75DFCAB89CB
:104BD0005B063FF51FAF09981EE703AB00932A461B
:104BE000054B04A9304600F079F8E4E7785700084F
:104BF0008257000800000000AB4900087E570008FB
:104C00002DE9F047164698468A680B69DDF8209032
:104C10009342B8BF1346336091F8432007460C46D1
:104C20000AB1013333602368990642BF3368023307
:104C30003360256815F0060506D104F1190AE3680A
:104C400032689B1AAB4226DC94F843302268003B62
:104C500018BF012392062BD404F143024146384683
:104C6000C84701301ED02368226903F00603042BD5
:104C700002BFE5683368ED1AA3680CBF25EAE57545
:104C800000259342C4BF9B1AED1800261A34B54282
:104C90001AD1002008E00123524641463846C84751
:104CA000013003D14FF0FF30BDE8F0870135C6E792
:104CB000E1185A1C302081F84300224494F8451032
:104CC00082F843100233C7E70123224641463846A3
:104CD000C8470130E6D00136D9E700002DE9FF478B
:104CE0000F7E0C9E782F914680460C469A4601F125
:104CF000430207D8622F0AD8002F00F0D180582F26
:104D000000F0B88004F1420684F842703AE0A7F15E
:104D10006303152BF6D801A151F823F0754D000857
:104D2000894D0008054D0008054D0008054D000897
:104D3000054D0008894D0008054D0008054D000887
:104D4000054D0008054D0008874E0008B34D0008CA
:104D5000414E0008054D0008054D0008A94E000809
:104D6000054D0008B34D0008054D0008054D00082D
:104D7000494E000833681A1D1B68326004F1420670
:104D800084F8423001239CE033682068191D3160AB
:104D9000060601D51D6803E04506FBD5B3F90050B2
:104DA000002D03DA2D236D4284F8433058480A233E
:104DB00011E021683368080653F8045B02D4490601
:104DC00048BFADB26F2F5248336014BF0A23082387
:104DD000002184F843106668A660002E05DB216878
:104DE0002E4321F0040121604BD01646B5FBF3F1B0
:104DF00003FB1157C75D06F8017D2F46BB420D46E8
:104E0000F4D9082B0BD12368DF0708D52369616823
:104E10009942DEBF302306F8013C06F1FF36921BB3
:104E20002261CDF800A04B4603AA21464046FFF779
:104E3000E7FE01304AD14FF0FF3004B0BDE8F08703
:104E4000236843F0200323603248782784F84570B4
:104E5000236831681F0651F8045B02D45F0648BF1F
:104E6000ADB23160D90744BF43F0200323601DB1C8
:104E70001023ADE72648E9E7236823F020032360E9
:104E8000F6E71646BDE7336825686169181D30608E
:104E90002E061B6801D5196002E06806FBD5198053
:104EA000002323611646BCE733681A1D32601E6872
:104EB00062680021304600F08BF908B1801B606009
:104EC00063682361002384F84330AAE723693246EC
:104ED00049464046D0470130ADD023689B0713D4E4
:104EE000E068039B9842B8BF1846A6E70123324604
:104EF00049464046D04701309DD00135E3680399CB
:104F00005B1AAB42F2DCEBE7002504F11906F5E78A
:104F1000895700089A570008B1F90C202DE9F04193
:104F2000160705460C4654D44B68002B02DC0B6C6C
:104F3000002B48DDE66A002E45D0002312F4805293
:104F40002F68216A2B6030D0626DA389590705D57F
:104F50006368D21A636B0BB1236CD21A0023E66A22
:104F6000216A2846B047431CA38906D129681D2918
:104F70002BD82A4ACA40D60727D500226260D90416
:104F80002269226004D5421C01D12B6803B96065F7
:104F9000616B2F60B9B104F14403994202D02846F5
:104FA000FFF794FA002363630DE001232846B0471E
:104FB0000246501CC9D12B68002BC6D01D2B01D036
:104FC000162B1ED12F60002022E043F040031BB2BD
:104FD0001BE00F69002FF6D093070E6808BF4B69DE
:104FE0000F6018BF0023A6EB07088B60B8F1000F15
:104FF000E9DD216AA66A43463A462846B0470028BA
:1050000008DCB4F90C3043F04003A3814FF0FF30CB
:10501000BDE8F0810744A8EB0008E7E70100402065
:1050200038B50B6905460C4613B90025284638BD2E
:1050300018B1036A0BB9FEF7FBFFB4F90C30002B73
:10504000F3D0626ED00704D4990502D4A06DFFF7A7
:105050001AFA28462146FFF75FFF636EDA07054616
:10506000E4D4A3899B05E1D4A06DFFF70DFADDE739
:1050700070B50C46B1F90E10002996B015461E46C3
:105080000DDAA38913F0800F4FF0000114BF402305
:105090004FF48063002031602B6016B070BD6A460B
:1050A00000F062F80028ECDB019901F47041A1F5F1
:1050B0000053594259414FF48063EBE78B89F7B5B0
:1050C0009D0706460C4607D504F14703236023617C
:1050D0000123636103B0F0BD01AB6A46FFF7C8FF6F
:1050E000009F054639463046FFF764FA48B9B4F9DF
:1050F0000C309A05EED423F0030343F00203A3819E
:10510000E2E7A389206043F08003A381019BC4E907
:1051100004075BB1B4F90E10304600F037F828B13F
:10512000A38923F0030343F00103A381A3891D4353
:10513000A581CFE7884210B501EB020402D9844271
:10514000234607D8431EA14208D011F8012B03F8CB
:10515000012FF8E7024401468A4200D110BD13F83E
:10516000014D02F8014DF7E738B5074D002304461D
:10517000084611462B60FCF779F8431C02D12B68D6
:1051800003B1236038BD00BFD801002038B5064DFB
:105190000023044608462B60FCF775F8431C02D137
:1051A0002B6803B1236038BDD801002038B5064D07
:1051B0000023044608462B60FBF736FE431C02D151
:1051C0002B6803B1236038BDD80100200000000027
:1051D00001F0FF01102A2BDB10F0070F08D010F8A8
:1051E000013B013A8B422DD010F0070F42B3F6D1AC
:1051F000F0B441EA012141EA014122F007047FF0C5
:1052000000070023F0E80256083C85EA010586EA1B
:10521000010685FA47F5A3FA87F586FA47F6A5FA57
:1052200087F68EB9EED1F0BC01F0FF0102F0070263
:1052300032B110F8013B013A83EA010313B1F8D10E
:105240000020704701387047002D06BF35460338EF
:10525000073815F0010F07D1013015F4807F02BF28
:10526000013015F4C03F0130F0BC0138704700BF79
:105270002DE9F041074614460D4621B9BDE8F0413D
:105280001146FFF797B92AB9FFF720F925462846B6
:10529000BDE8F08100F01AF88442064602D8B4EB6B
:1052A000500FF4D821463846FFF784F9804608B9F4
:1052B0004546ECE7B4422246294628BF3246FFF76E
:1052C000EEF829463846FFF701F9F1E751F8043CBA
:1052D000181F002BBCBF0B58C01870472E2E2F7301
:1052E000797374656D2F7372632F73746D333266C7
:1052F000342D68616C2F73746D3332663478785F47
:1053000068616C5F636F727465782E6300000000E3
:105310002E2E2F73797374656D2F7372632F7374D0
:105320006D333266342D68616C2F73746D33326661
:105330003478785F68616C5F7263632E630000008D
:105340002C2066756E6374696F6E3A200000000051
:10535000617373657274696F6E20222573222066F3
:1053600061696C65643A2066696C65202225732248
:105370002C206C696E65202564257325730A000056
:1053800061626F727428292C2065786974696E6770
:105390002E2E2E003A747400537461636B20667273
:1053A000616D653A0A000000205230203D20202522
:1053B0003038580A00000000205231203D202025BE
:1053C0003038580A00000000205232203D202025AD
:1053D0003038580A00000000205233203D2020259C
:1053E0003038580A0000000020523132203D20257C
:1053F0003038580A00000000204C52203D20202563
:105400003038580A00000000205043203D2020255D
:105410003038580A0000000020505352203D20250B
:105420003038580A000000004653522F4641523A85
:105430000A0000002043465352203D2020253038EA
:10544000580A00002048465352203D20202530387D
:10545000580A00002044465352203D202025303871
:10546000580A00002041465352203D202025303864
:10547000580A0000204D4D464152203D202530382D
:10548000580A00002042464152203D202025303855
:10549000580A00004D6973630A000000204C522F27
:1054A0004558435F52455455524E3D20253038589B
:1054B0000A0000005B486172644661756C745D0AA5
:1054C000000000005B4275734661756C745D0A00F4
:1054D0005B55736167654661756C745D0A00000019
:1054E00057726F6E6720706172616D65746572735B
:1054F0002076616C75653A2066696C65202573209D
:105500006F6E206C696E652025640D0A0000000036
:1055100054696D65206973202569200A0000000028
:1055200054696D65206973202569000049746572AE
:105530006174696F6E202569202C51756575652031
:105540002569200A00000000546F74616C207365A7
:105550006E74206D65737361676573203D202569E6
:10556000200A0000546F74616C20626C6F636B657D
:1055700064206D65737361676573203D2025690A3A
:105580000000000048696768207072696F72697472
:1055900079207461736B2073656E74203D202569DA
:1055A000200A00004C6F77207072696F72697479FD
:1055B000207461736B312073656E74203D20256902
:1055C000200A00004C6F77207072696F72697479DD
:1055D000207461736B322073656E74203D202569E1
:1055E000200A000048696768207072696F726974E8
:1055F00079207461736B20626C6F636B6564203D0E
:10560000202569200A0000004C6F77207072696FB6
:1056100072697479207461736B3120626C6F636B93
:105620006564203D202569200A0000004C6F77202A
:105630007072696F72697479207461736B32206261
:105640006C6F636B6564203D202569200A000000B3
:1056500047616D65204F7665720000004869676894
:10566000000000004C6F7731000000004C6F773273
:105670000000000052656365697665644D73677369
:105680000000000053656E64657254696D65724870
:105690006967680053656E64657254696D65724C24
:1056A0006F77310053656E64657254696D65724C35
:1056B0006F773200526563656976657254696D650E
:1056C0007200000049444C4500000000546D7251C6
:1056D00000000000546D722053766300000000004B
:1056E0000000000001020304060708095245454E68
:1056F00054206D616C6C6F632073756363656564C2
:105700006564002F5F5F772F61726D2D6E6F6E6520
:105710002D656162692D6763632D787061636B2FFE
:1057200061726D2D6E6F6E652D656162692D6763A7
:10573000632D787061636B2F6275696C642F776974
:105740006E33322D7836342F736F75726365732F15
:105750006E65776C69622D63796777696E2F6E6508
:10576000776C69622F6C6962632F7374646C696211
:105770002F72616E642E6300232D302B2000686C25
:105780004C00656667454647003031323334353664
:10579000373839414243444546003031323334359D
:1057A0003637383961626364656600002020202046
:1057B00020202020202828282828202020202020C1
:1057C00020202020202020202020202088101010A1
:1057D00010101010101010101010101004040404F9
:1057E000040404040404101010101010104141416E
:1057F00041414101010101010101010101010101D9
:10580000010101010101011010101010104242426B
:1058100042424202020202020202020202020202A8
:10582000020202020202021010101020000000000A
:105830000000000000000000000000000000000068
:105840000000000000000000000000000000000058
:105850000000000000000000000000000000000048
:105860000000000000000000000000000000000038
:105870000000000000000000000000000000000028
:105880000000000000000000000000000000000018
:105890000000000000000000000000000000000008
:1058A00000000000000000000000000010000000E8
:1058B00000000000017A5200027C0E011B0C0D005A
:1058C0001000000018000000F2EBFFFF10000000C5
:1058D000000000001000000000000000017A5200EB
:1058E000027C0E011B0C0D003800000018000000A7
:1058F000E0F8FFFF9E00000000510E1084048503B5
:10590000860287015BC7C6C5C40E004C0A420B0A5B
:10591000420B0E10840485038602870151C7C6C559
:04592000C40E0000B1
:0859240094E2FF7F0100000086
:10592C007856341201FFFFFF100000000024F40031
:10593C0096000000C8000000FA0000002C010000D6
:10594C005E010000900100003200000050000000D9
:10595C006E0000008C000000AA000000C8000000CF
:10596C000A000000AAAAAAAA000000000300000076
:10597C006030012058000020000000006030012041
:10598C00C830012030310120000000000000000070
:10599C0000000000000000000000000000000000FB
:1059AC0000000000000000000000000000000000EB
:1059BC0000000000000000000000000000000000DB
:0859CC0000000000325476983F
:040000050800018965
:00000001FF
